:10000000AC160010551B0000BD1B0000BD1B0000FE
:10001000BD1B0000BD1B0000BD1B00000000000058
:10002000000000000000000000000000BD1B0000F8
:10003000BD1B00000000000071250000D942000037
:10004000BD1B000061030000BD1B0000BD1B0000C4
:10005000BD1B0000BD1B0000BD1B0000BD1B000040
:10006000BD1B0000BD1B0000BD1B0000BD1B000030
:10007000BD1B0000BD1B0000BD1B0000BD1B000020
:10008000BD1B0000BD1B000019370000BD1B000098
:10009000BD1B0000BD1B000049450000BD1B00004A
:1000A000BD1B0000BD1B0000BD1B0000BD1B0000F0
:1000B000BD1B0000BD1B0000BD1B0000BD1B0000E0
:1000C000BD1B0000BD1B0000BD1B000080B400AFC5
:1000D0000E4A0F4B1A600D4B03F1C8020C4B5A60CD
:1000E0000A4A0C4B1A600B4B1B684FF000021A6057
:1000F000084B1B684FF000025A60064B1B684FF01C
:1001000000029A60BD4680BC704700BF60010010CD
:100110002C0200102802001080B582B000AF786079
:100120000B46FB707B68B3F1402F10D07A681A4BF6
:100130009A420CD07A68194B9A4208D07A68184BC8
:100140009A4204D017484FF0D60101F03BFDFB78EE
:10015000002B13D0FB78012B10D0FB78022B0DD095
:10016000FB78032B0AD0FB78042B07D0FB78052BF8
:1001700004D00C484FF0D70101F024FD7B681A68C9
:10018000FB784FF0010101FA03F31A437B681A6010
:1001900007F10807BD4680BD00800040000009400F
:1001A00000400940FC71000080B500AF014802F03A
:1001B00091F980BD3402001080B500AF0F4802F005
:1001C000A3F90E4B1B78DBB2002B16D10C4B1B781E
:1001D000DBB2012B11D10B4B1B78DBB203F1010316
:1001E000DAB2084B1A7000F075FF064B1B78DBB2D1
:1001F00003F1FF33DAB2034B1A7080BD34020010F2
:10020000360200103502001080B500AF0F4B1B788E
:10021000DBB2012B11D10E4B1B78012B01D101F068
:100220003FFB0C4B1B78DBB2012B01D100F052FFDE
:10023000064B4FF000021A7007E0044B1B78DBB24C
:1002400003F1FF33DAB2014B1A7080BD35020010A2
:10025000440600103602001080B500AF174B184A54
:100260001A60184B4FF007021A60174B164A1268B3
:1002700042F07F421A60154A144B1B686FEA034331
:100280006FEA1343136000F02FFD01F06BFEFFF7E0
:100290001DFF0F4B1B78DBB203F10103DAB20C4BED
:1002A0001A700C484FF000014FF4CA520A4B00F08C
:1002B000EBFF094802F04CF980BD00BF14E000E0FC
:1002C0009F86010010E000E01CED00E020ED00E062
:1002D00035020010154A0000F805001080B500AF87
:1002E000094B0A4A1A60084B1A68094B1A60064BF8
:1002F0001B684FF001025A71034B1B68184600F04F
:10030000B1FDFFF781FF80BD0806001090040010CA
:100310000406001080B400AF0C4B4FF000021A61CD
:100320000B4A0B4BDB694FEA13434FEA0343D3619C
:10033000064B4FF080629A61044B044A126842F007
:1003400080621A60BD4680BC704700BF60C0092053
:1003500000C0024080B400AFBD4680BC704700BF03
:1003600080B500AF4FF040204FF00001FFF7D4FE02
:100370000B4B1A680B4B1B689A420AD20A4B0A4A6B
:10038000526982F080625A61064B4FF000021A6097
:1003900005E0044B1B6803F10102024B1A6080BDAB
:1003A000380200103C02001060C0092090B587B0F0
:1003B00000AF0346FB71FA798B4913464FEA4303BA
:1003C0009B184FEAC303CB1803F104031B68FB60BF
:1003D000FB68002B00F00381844B1B78DBB203F138
:1003E0000103DAB2814B1A70814B1B68002B0CD1D0
:1003F000FA7913464FEA43039B184FEAC3031A46A0
:10040000794BD2187A4B1A60E6E0794B1B687B6116
:10041000FB683B61DCE03A697B695B68D31A3B614E
:100420003B69002B80F2A3807B695B69002B34D091
:100430007B695969FA7913464FEA43039B184FEADF
:10044000C3031A46684BD3180B61FA797B69596963
:10045000654813464FEA43039B184FEAC303C3188A
:1004600003F114031960FA795F4913464FEA430315
:100470009B184FEAC303CB1803F110037A691A6083
:10048000FA7913464FEA43039B184FEAC3031A460F
:10049000554BD2187B695A6126E0FA79544B19689A
:1004A000514813464FEA43039B184FEAC303C3184E
:1004B00003F1100319604E4B1968FA7913464FEA9D
:1004C00043039B184FEAC3031A46474BD3184B61AB
:1004D000FA7913464FEA43039B184FEAC3031A46BF
:1004E000414BD218424B1A60FA79F9793E480B46D3
:1004F0004FEA43035B184FEAC303C31803F1100329
:100500001B6859683B69C918374813464FEA4303CB
:100510009B184FEAC303C31803F104031960FA7967
:10052000314913464FEA43039B184FEAC303CB18E4
:1005300003F110031968FA792B4813464FEA430375
:100540009B184FEAC303C31803F110031B685868D4
:10055000FA79254C13464FEA43039B184FEAC3032D
:10056000E31803F104031B68C31A4B6034E03B69D2
:10057000002B2ADB7B691B69002B26D1FA791A49EB
:1005800013464FEA43039B184FEAC303CB1803F10A
:1005900014037A691A60FA7913464FEA43039B18E9
:1005A0004FEAC3031A46104BD2187B691A61FA79D5
:1005B00039690D4813464FEA43039B184FEAC303BA
:1005C000C31803F10403196006E07B691B697B61B2
:1005D0007B69002B7FF41FAFFFF716FE00E000BF22
:1005E00007F11C07BD4690BD400200103502001007
:1005F0007002001080B584B000AF0346FB71FA7939
:1006000013464FEA43039B184FEAC3031A46314B84
:10061000D318FB60304B1B78DBB203F10103DAB275
:100620002D4B1A70FB685B69002B08D1FB681B69B6
:10063000002B04D1294B4FF000021A6043E0FB6805
:100640005B69002B16D1FB681A69244B1A60234B97
:100650001B684FF000025A61FB681B69FA68126957
:100660005168FA6852688A185A60FB684FF00002B5
:100670001A6128E0FB681B69002B09D1FB685B69E4
:100680004FF000021A61FB684FF000025A611AE055
:10069000FB685B69FA6812691A61FB681B69FA6892
:1006A00052695A61FB681B69FA6812695168FA68F5
:1006B00052688A185A60FB684FF000021A61FB68A2
:1006C0004FF000025A61FFF79FFD07F11007BD468A
:1006D00080BD00BF40020010350200107002001003
:1006E00080B582B000AF1C4B1B687B6028E07B6844
:1006F0005B78002B0CD17B681B781846FFF77AFFDC
:100700007B684FF001029A707B68DB68984714E0C1
:100710007B685B78012B10D17B681B781846FFF74C
:1007200069FF7B689A687B685A607B681B7818460B
:10073000FFF73CFE7B68DB689847074B1B687B60D4
:100740007B68002B03D07B685B68002BCFD007F160
:100750000807BD4680BD00BF7002001080B500AF25
:10076000084B1B78DBB2012B08D9074B4FF0010275
:100770001A70064B4FF001021A7001E0FFF7B0FF4C
:1007800080BD00BF35020010440600104606001070
:1007900080B485B000AF78607B681F2B06D87B687B
:1007A000FB600D4BD3F8A831BB6007E07B68A3F179
:1007B0002003FB60084BD3F8AC31BB60FB68BA6820
:1007C00022FA03F303F00303BB60BB68184607F18A
:1007D0001407BD4680BC704700C00F4080B584B090
:1007E00000AF7860184B1B68BB607868FFF7D0FFDC
:1007F000F860FB68032B1BD801A252F823F000BF5E
:100800001108000019080000210800002908000054
:100810004FF00403FB600BE04FF00103FB6007E0C7
:100820004FF00203FB6003E04FF00803FB6000BFE2
:10083000BA68FB68B2FBF3F3BB60BB68184607F10C
:100840001007BD4680BD00BF0000001080B483B01B
:1008500000AF78600B46FB70FB78012B0CD1114A7E
:10086000104BD3F8C41078680F4B00EA030341EA39
:100870000303C2F8C4300FE0FB78002B0CD1094A07
:10088000084BD3F8C4107B686FEA03031940064B8A
:1008900001EA0303C2F8C43007F10C07BD4680BC6F
:1008A000704700BF00C00F40DEF7EFEF80B485B0A7
:1008B00000AFF860B9607A603B6000BEFEE700BF41
:1008C00080B400AF5A4B4FF02002C3F8A021584B20
:1008D000D3F8A03103F02003002B07D000BF544B06
:1008E000D3F8A03103F04003002BF8D0504B4FF069
:1008F0000302C3F804214E4B4FF00002C3F8A821B5
:100900004B4B4FF00002C3F8AC21494B4FF00102B2
:10091000C3F80C21464B474AC3F88420444B4FF0A0
:10092000AA02C3F88C20424B4FF05502C3F88C202A
:100930003F4B4FF00102C3F880203D4B4FF0AA021D
:10094000C3F88C203A4B4FF05502C3F88C2000BFFF
:10095000374BD3F8883003F08063002BF8D0344B4A
:100960004FF00302C3F88020314B4FF0AA02C3F8C6
:100970008C202F4B4FF05502C3F88C2000BF2C4B1E
:10098000D3F8883003F04073002BF8D0284B4FF099
:100990002302C3F8A420264B4FF0AA02C3F8AC20D0
:1009A000234B4FF05502C3F8AC20214B4FF001020E
:1009B000C3F8A0201E4B4FF0AA02C3F8AC201C4B7A
:1009C0004FF05502C3F8AC2000BF194BD3F8A83044
:1009D00003F48063002BF8D0154B4FF00302C3F8EB
:1009E000A020134B4FF0AA02C3F8AC20104B4FF0DD
:1009F0005502C3F8AC2000BF0D4BD3F8A83003F468
:100A00004073002BF8D00A4B0B4AC3F8C420084BA4
:100A10004FF00002C3F8C821054B43F23A021A60B6
:100A2000064B4FF000029A60BD4680BC704700BF85
:100A300000C00F4063000500DE87280400ED00E0E1
:100A400080B400AF0C4B4FF000021A610B4A0B4B05
:100A50001B694FEA13434FEA03431361064B064AEF
:100A6000126842F0FF021A60034B4FF0FF02DA6196
:100A7000BD4680BC704700BF40C0092000C0024096
:100A800080B582B002AF0D4B4FF000021A7001F03A
:100A9000EFFD03461A460A4B1A70094B1B78FF2BD1
:100AA0000AD14FF01203009306484FF00C014FF0AB
:100AB0002902054BFFF7FAFEBD4680BD7C040010FD
:100AC00078020010A07200004472000080B582B06D
:100AD00000AF03463960FB71144B1B78184601F0D8
:100AE0000DFE134BFA791A70114B3A685A600F4B8E
:100AF0001B78184601F0CEFE0E4B1B78002B00D061
:100B0000FEE70D480A494FF400420C4B00F0BCFBD5
:100B100003461A46074B1A70064B1B78FF2B00D171
:100B2000FEE707F10807BD4680BD00BF7802001050
:100B3000800400107C040010010C000078040010F8
:100B400080B584B002AF0E4B1B78184600F042FC13
:100B50000346FB71FB79002B0AD04FF01103009381
:100B600008484FF00C014FF04502074BFFF79EFE7F
:100B7000034B4FF000021A7007F10807BD4680BD15
:100B80007C040010907200005872000080B582B0A2
:100B900000AF7860084B1B78184601F0AFFD074B9B
:100BA0007A685A60044B1B78184601F073FE07F10F
:100BB0000807BD4680BD00BF780200108004001009
:100BC00080B483B000AF0346FB71044BFA799A619D
:100BD00007F10C07BD4680BC704700BF40C009202C
:100BE00080B483B000AF0346FB71044BFA79DA613D
:100BF00007F10C07BD4680BC704700BF40C009200C
:100C000080B586B002AF78607B68FB604FF0FF0074
:100C1000FFF7E6FFFB681B78002B02D0012B15D0F5
:100C200047E02E4B1B68DBB21846FFF7C9FF2B4B82
:100C30001B684FEA4302294B1A60284B1B68802B24
:100C400043D9264B4FF001021A6041E0234B1B6849
:100C5000184605F0E5F902460B464FF000004FF04C
:100C6000804103F0E3FE02460B46104619464FF062
:100C700000024FF07E5303F5E00305F093F80246BF
:100C80000B461046194605F003FD0346DBB2184635
:100C9000FFF796FF114B1B6803F101020F4B1A601F
:100CA0000E4B1B68082B12D90C4B4FF001021A6037
:100CB0000EE04FF01403009309484FF008014FF085
:100CC0008B02084BFFF7F2FD02E000BF00E000BF1F
:100CD000FB685B68184601F055F897E704000010C0
:100CE000847200006C72000080B485B000AF184BB5
:100CF000BB60184B7B604FF00003FB7315E0BB68D3
:100D0000FA7B9A71BB684FF003025A71BB687A682C
:100D10005A62BB6803F12C03BB607B6803F12C03B0
:100D20007B60FB7B03F10103FB73FB7B042BE6D9A8
:100D3000BB68FA7B9A71BB684FF000025A62064B9F
:100D4000034A1A6007F11407BD4680BC704700BF14
:100D500090040010BC040010FC05001080B487B0A3
:100D600000AF78607B681B79FB737B684FF00002F3
:100D70005A71374B1B683B613B691B79FA7B9A427E
:100D80001ED13A697B689A421AD03B69002B17D072
:100D9000304BD3E90001304BD3E90023904271EB93
:100DA000030C0DD23B695B8918464FF000012A4BBA
:100DB000D3E90023121843EB01032649C1E90023BC
:100DC000264B1B683B613B69002B07D1244B4FF03E
:100DD00001021A70214B7A681A6034E03B691B7972
:100DE000FA7B9A420DD21E4B4FF001021A707B68BB
:100DF0003A695A623B697A689A62184B7A681A6053
:100E000021E03B695B6A7B6109E07B691B79FA7BC6
:100E10009A4208D37B693B617B695B6A7B617B6932
:100E2000002BF2D100E000BF7B687A695A623B690F
:100E30007A685A627B683A699A627B69002B02D0B1
:100E40007B697A689A6207F11C07BD4680BC7047CF
:100E50000806001010060010981000100006001080
:100E60003602001080B483B000AF78607B685B6AA4
:100E7000002B08D17B689B6A002B04D11D4B4FF0DF
:100E800000021A6031E07B689B6A002B0DD17B6801
:100E90005A6A184B1A607B684FF000025A62154B71
:100EA0001B684FF000029A621FE07B685B6A002BB0
:100EB00009D17B689B6A4FF000025A627B684FF051
:100EC00000029A6211E07B689B6A7A68526A5A62F1
:100ED0007B685B6A7A68926A9A627B684FF000026C
:100EE0005A627B684FF000029A6207F10C07BD4618
:100EF00080BC70470006001080B586B000AF024687
:100F00000B46FA71BB71FB79002B02D14FF0140331
:100F1000CFE0FB79052B02D94FF00103C9E0FB7943
:100F20004FF02C0202FB03F2644BD3187B617B6908
:100F30005B79032B02D14FF00103BAE0BB79402B60
:100F400002D94FF00103B4E07B691B79BA799A4268
:100F500000F0AD807B69DB79FF2B17D07B69DB79F3
:100F60004FEAC302564BD318FB60FB689A787B6943
:100F70009B799A420AD1FB68BA791A707B691B790E
:100F8000BA799A4202D94FF0000392E07B69BA79AC
:100F90001A717B695B79002B10D14A4B1B78DBB24D
:100FA00003F10103DAB2474B1A707869FFF75AFF71
:100FB0007869FFF7D3FEFFF727F978E07B695B7963
:100FC000012B15D17B691A793F4B1B681B799A421B
:100FD0006DD93C4B1B78DBB203F10103DAB2394B1C
:100FE0001A703A4B4FF001021A70FFF70DF95EE0EC
:100FF0007B69DB79FF2B39D0324B1B78DBB203F1F5
:101000000103DAB22F4B1A707B69DB794FEAC30216
:101010002B4BD318FB60FB685B687B61FB681B781C
:10102000FB74FB689A78FB68DA700EE07B691B79C9
:10103000FA7C9A4206D97B691B79FB747B699A79A1
:10104000FB68DA707B695B6A7B617B69002BEDD1A1
:10105000FFF7DAF8FB681B78FA7C9A4206D0FB6847
:101060009A78FB7C10461946FFF746FFFB794FF054
:101070002C0202FB03F2114BD3187B617B691B7AB4
:10108000FF2B14D07B691B7A4FEA0312104BD31845
:10109000BB60BB685B7923F00F03DBB2202B06D16A
:1010A000786901F0BDF8B868796900F09FFF4FF0EA
:1010B0000003184607F11807BD4680BD90040010D4
:1010C00098090010350200100006001036020010CA
:1010D0005008001080B584B000AF4E4B1B68FB6019
:1010E0004D4B1B68BB60BB68002B00F083804B4BF3
:1010F0001B68FA689A427FD1494B1B78DBB2012BFF
:101100007CD8484B1B78DBB2002B79D1464B4FF093
:1011100000021A70FB681B79FB71BB681B79BB71FD
:10112000FB685B79012B0AD03C4BBA681A60BB683C
:101130004FF001025A71B868FFF794FE2FE0BA79B8
:10114000FB799A420DD2354BBA681A60F868FFF7FE
:1011500005FEB868FFF786FEBB684FF001025A71C2
:101160001DE0FA79BB799A424CD1304BD3E90001AA
:101170002F4BD3E9002382EA000283EA010352EAFB
:10118000030141D1254BBA681A60F868FFF7E6FD04
:10119000B868FFF767FEBB684FF001025A711F4B3A
:1011A0001B681A791C4B1B681B799A420ED11B4B8A
:1011B0001B685B8918464FF000011D4BD3E90023E3
:1011C000121843EB01031949C1E90023FB681A68AF
:1011D000FB68DB689A4205D3FB68DB681A68154B2D
:1011E0009A4204D0FB689B79184603F019FC01F081
:1011F000B5F90AE000BF08E000BF06E000BF04E068
:1012000000BF02E000BF00E000BF07F11007BD46CD
:1012100080BD00BF08060010000600100406001084
:1012200035020010340200103602001010060010C3
:1012300098100010A5A55A5A80B582B000AF104B87
:101240001B78DBB203F10103DAB20D4B1A700D4BC0
:101250001B68002B04D1FEF7D7FF4FF000030AE014
:10126000084B1B687B60074B1B685A6A054B1A606A
:10127000FEF7CAFF7B68184607F10807BD4680BD28
:1012800035020010FC05001080B588B000AFF86092
:10129000B9607A603B607A684A4B02EA03034FEA1E
:1012A0001323BB837B68FB76FB68002B02D14FF0D6
:1012B000FF0382E03B68002B02D14FF0FF037CE08C
:1012C000FB7E402B02D94FF0FF0376E0BB8B132B44
:1012D00002D84FF0FF0370E0F868B9683A6802F08E
:1012E000CDFF7861FFF7A8FF38613B69002B02D181
:1012F0004FF0FF0361E03B697A691A603B69FA7E4F
:101300001A71BA8B13464FEA83739B1A4FEA830311
:1013100003F104033A68D2183B69DA603B69DB6881
:10132000294A1A603B694FF0FF321A623B694FF05D
:1013300000025A623B694FF000029A627A68234BBE
:1013400002EA03034FEA1353FB83FB8B002B02D10A
:101350004FF00A03FB833B69FA8B5A813B694FF0DC
:101360000002DA613B694FF0FF021A723B694FF0ED
:1013700000021A613B694FF000025A613B694FF06D
:1013800000029A613B694FF0FF02DA717B68002B23
:101390000DDB0F4B1B78DBB203F10103DAB20C4B10
:1013A0001A703869FFF7DAFCFEF72EFF03E03B699D
:1013B0004FF002025A713B699B79184607F12007EA
:1013C000BD4680BD00FF0F00A5A55A5A0000FF7F53
:1013D0003502001080B584B000AF0346FB71FB7985
:1013E000052B02D94FF001037AE0FB794FF02C0274
:1013F00002FB03F23D4BD318FB60FB685B79032BC8
:1014000002D14FF001036BE0FB79002B02D14FF0CA
:10141000140365E0FB685B79012B07D1344B1B7823
:10142000DBB2002B02D04FF0150359E0FB68DB79EB
:10143000FF2B0FD0FB68DB792E4A4FEAC303D3188A
:101440009A78FB689B799A4204D1FB68DB7918464D
:1014500001F020FA264B1B78DBB203F10103DAB26C
:10146000234B1A70FB685B79002B03D1F868FFF7F8
:10147000F9FC22E0FB685B79022B1ED1FB681B6A3A
:10148000B3F1FF3F02D0F86800F01CFCFB681B7A48
:10149000FF2B02D0F86800F0C3FEFB68DB69002B6D
:1014A00004D0FB68DB69184601F06AFDFB68DB7954
:1014B000FF2B02D0F86801F093FAFB684FF00302AB
:1014C0005A710D4B4FF001021A700C4B1A68FB68F1
:1014D0005A620A4BFA681A60FEF796FE4FF0000354
:1014E000184607F11007BD4680BD00BF90040010EC
:1014F000350200109809001036020010FC0500109B
:1015000080B584B000AF786039607A681F4B9A422A
:1015100004D01F484FF03C0100F054FB3B68002B07
:1015200003D03A681B4B9A4204D919484FF03D0149
:1015300000F048FB4FF480504FF00101FFF786F9AF
:101540007B684FF000021A604FF40013FB604FF00D
:101550001800FFF743F9B8603A6813464FEA83135F
:101560009B18BA68B2FBF3F303F1FF33BB60BB68AF
:101570004FEA0323FA6842EA0303FB607B68FA68D8
:101580001A6007F11007BD4680BD00BF0040034050
:10159000B0720000400D030080B582B000AF7860EB
:1015A0000B46FB707A681B4B9A4204D01A484FF0E6
:1015B000850100F007FBFB78002B19D0FB78012B8D
:1015C00016D0FB78022B13D0FB78032B10D0FB78BE
:1015D000042B0DD0FB78052B0AD0FB78062B07D007
:1015E000FB78072B04D00C484FF0860100F0EAFA94
:1015F0007B681B6823F0E0627B681A607B681A686E
:10160000FB784FEA03631A437B681A6007F1080707
:10161000BD4680BD00400340B072000080B582B07E
:1016200000AF786013460A46FA70BB707A68224BA6
:101630009A4204D021484FF0D40100F0C3FAFB785D
:10164000002B1CD0FB78012B19D0FB78022B16D075
:10165000FB78032B13D0FB78042B10D0FB78052BE1
:101660000DD0FB78062B0AD0FB78072B07D0FB7830
:10167000082B04D011484FF0D50100F0A3FA7B6885
:10168000DA68FB784FF0010101FA03F36FEA030314
:101690001A407B68DA60BB78002B09D07B68DA6877
:1016A000FB784FF0010101FA03F31A437B68DA601B
:1016B00007F10807BD4680BD00400340B07200003E
:1016C00080B582B000AF786013460A46FA70BB70EE
:1016D0007A68134B9A4204D012484FF0E70100F0A9
:1016E00071FABB78012B0AD17B681A68FB784FF03E
:1016F000010101FA03F31A437B681A600BE07B686F
:101700001A68FB784FF0010101FA03F36FEA030353
:101710001A407B681A6007F10807BD4680BD00BF0C
:1017200000400340B072000080B584B000AF786024
:101730000B46FB707A680F4B9A4204D00E484FF06C
:10174000FB0100F03FFA7B6803F11002FB784FEADF
:101750008303D3181B68FB60FB684FEA13139BB22B
:101760004FEA03534FEA13539BB2184607F1100791
:10177000BD4680BD00400340B072000080B586B019
:1017800000AFF8600B467A60FB72FA681A4B9A4217
:1017900004D01A4840F20F1100F014FA7B68002BB5
:1017A00007D07B68012B04D0144840F2111100F0DF
:1017B00009FAFB6803F11002FB7A4FEA8303D3189E
:1017C0001B687B617B68002B04D07B6903F00043BE
:1017D0007B6103E07B6903F080437B617B69002BC5
:1017E00002D04FF0010301E04FF00003184607F16B
:1017F0001807BD4680BD00BF00400340B072000026
:1018000080B584B000AF0B463A600246FA71BB71F6
:1018100000F098FE1E4B1B78042B04D900F08CFEC0
:101820004FF000032FE01A4B184600F053FE03461A
:10183000FB73174B5B78BB73164B4FF001021A70AA
:10184000FA7BBB7BD118144B83FB01234FEA630265
:101850004FEAE173D21A13464FEA83039B18CA1A60
:1018600013464FEAC3020D4BD318BB60BB68FA792D
:101870001A70BB68BA795A70BB683A685A6000F04F
:101880005BFE4FF00103184607F11007BD4680BD0F
:101890001806001044060010676666661C060010F5
:1018A00080B582B000AF404B1B78012B05D100F012
:1018B00001FB3D4B4FF000021A703C4B1B78012B93
:1018C0005AD1FEF70DFF394B4FF000021A7056E067
:1018D00000F038FE364B5B78354A4FEAC303D31825
:1018E0003A4603F1040393E8030082E80300304B17
:1018F0005B7803F101012F4B83FB01234FEA630265
:101900004FEAE173D21A13464FEA83039B18CA1AAF
:10191000D2B2274B5A70264B1B7803F1FF33DAB251
:10192000234B1A7000F008FE3B7803F1FF33032BC2
:1019300024D801A252F823F04919000053190000DD
:10194000611900006B1900007B78184603F01EF83F
:1019500015E07A787B681046194600F0B3F80EE07F
:101960007B78184601F0ECF909E07A787B6810463C
:10197000194600F01BFE02E000BF00E000BF0C4B68
:101980001B78002BA4D100F0DDFD094B1B78002B48
:1019900003D1094B4FF000021A7000F0CDFD07F1A2
:1019A0000807BD4680BD00BF450600104606001072
:1019B00018060010676666664406001080B582B09F
:1019C00002AFFFF73DF8FEF7A5FC02F03DFD01F088
:1019D00055FE02F0E3FD00F0B7F8FEF73DFC0F48BE
:1019E0004FF000014FF400420D4BFFF74DFC034652
:1019F0001A460C4B1A700B4B1B78FF2B0AD14FF079
:101A00001103009308484FF004014FF02802074BE0
:101A1000FEF74CFFFEF762FCFEE700BF311A000044
:101A2000440800104808001030730000F8720000ED
:101A300080B584B000AF7860FFF722F8FEF78AFC2B
:101A400002F01CFD164801F045FE02F0ADFD154800
:101A500002F032FE4FF000004FF03201FFF736F88F
:101A60004FF000004FF000014FF000024FF4C87338
:101A700000F0C6F9FFF764F84FF001004FF4FA7177
:101A8000FFF724F802F03AFDF860FB68312B02D82A
:101A90004FF03203FB60F868FFF778F8F2E700BF19
:101AA000A91A00000C73000080B400AF044B044A74
:101AB000526982F080625A61BD4680BC704700BFA7
:101AC00060C0092080B584B000AF03463960FB7167
:101AD000FB79132B02D94FF001032CE0FB794FEA7D
:101AE0000312174BD318FB60FB685B7903F00F03FD
:101AF000DBB2022B02D04FF001031CE0FB68DB8855
:101B0000002B16D10F4B1B78DBB203F10103DAB2C5
:101B10000C4B1A70FB683A681A60FB684FF00102C0
:101B2000DA80F86800F0E8FAFEF76EFB4FF0000389
:101B300001E04FF00703184607F11007BD4680BDCE
:101B4000500800103502001080B400AFBD4680BCC4
:101B5000704700BF80B582B000AF134B7B60134B62
:101B60003B600BE07B681A683B681A603B6803F1D6
:101B700004033B607B6803F104037B603A680C4B11
:101B80009A42EFD30B480C494FF000028842B8BF8D
:101B900040F8042BFADBFEF793FEFFF70FFF07F187
:101BA0000807BD4680BD00BF84AB000000000010E8
:101BB0006001001060010010B012001080B400AF8E
:101BC00000BEFEE780B483B000AF78603960FEE706
:101BD00080B485B000AF786039603B68002B67D077
:101BE000364B1B68002B06D17B683A681A62334B70
:101BF0007A681A6053E0314B1B68BB603B68FB603E
:101C00004AE0FA68BB681B6AD31AFB60FB68002BCA
:101C10002EDABB689B6A002B0ED0BB689B6A7A6881
:101C20005A62BB689A6A7B689A627B68BA685A6231
:101C3000BB687A689A620AE0204B1A687B685A622D
:101C40001E4B1B687A689A621C4B7A681A607B6824
:101C50005B6A1A6AFB68D2187B681A627B685B6AE7
:101C60007A68526A116A7A68126A8A1A1A6216E0E7
:101C7000FB68002B0DDBBB685B6A002B09D17B681E
:101C8000BA689A62BB687A685A62FA687B681A62B4
:101C900005E0BB685B6ABB60BB68002BB1D17B68A9
:101CA0004FF002025A71064B4FF001021A7000E029
:101CB00000BF07F11407BD4680BC70474C080010F8
:101CC0003602001080B483B000AF78607B689B6AF6
:101CD000002B08D17B685B6A002B04D1284B4FF0A6
:101CE00000021A6043E07B689B6A002B16D17B6878
:101CF0005A6A234B1A607B685B6A7A68526A116A77
:101D00007A68126A8A181A627B685B6A4FF000026E
:101D10009A627B684FF000025A6228E07B685B6A37
:101D2000002B09D17B689B6A4FF000025A627B68E6
:101D30004FF000029A621AE07B689B6A7A68526AE6
:101D40005A627B685B6A7A68926A9A627B685B6AAD
:101D50007A68526A116A7A68126A8A181A627B680B
:101D60004FF000025A627B684FF000029A627B6873
:101D70004FF0FF321A6207F10C07BD4680BC704776
:101D80004C08001080B582B000AF7860194B1B780A
:101D9000DBB2002B02D04FF0030326E07B68B3F1E7
:101DA000FF3F02D14FF002031FE07B68002B02D1FE
:101DB0004FF0000319E0104B1B78DBB2002B02D070
:101DC0004FF0150311E00C4B1B78DBB203F101035C
:101DD000DAB2094B1A70094B1B6818467968FFF78D
:101DE000F7FEFEF711FA4FF00003184607F1080757
:101DF000BD4680BD340200103502001008060010F8
:101E000080B584B000AFF871B9717A717B80264BD0
:101E10001B78DBB2002B02D04FF003033EE0BB790E
:101E20003B2B07D87B793B2B04D87A8840F2E733E9
:101E30009A4202D94FF0020330E01C4B1B78DBB210
:101E4000002B02D04FF0150328E0FB794FF46162BC
:101E500002FB03F1BA7913464FEA03139B1A4FEAC8
:101E60008303CA187B79D3184FF47A7202FB03F20A
:101E70007B884FF47A7101FB03F303F5FA730C4985
:101E800081FB03014FEAA1114FEAE373CB1AD31888
:101E9000FB60F868FFF776FF4FF00003184607F184
:101EA0001007BD4680BD00BF34020010350200108F
:101EB000D34D621080B582B000AF1C4B1B687B60B5
:101EC00028E07B681B7AFF2B02D0786800F0A8F925
:101ED0007B68DB69002B04D07B68DB69184601F066
:101EE0004FF87B684FF0FF321A627B685A6A0F4BDB
:101EF0001A607B684FF000025A627868FEF72EFF86
:101F00000A4B1B687B607B68002B03D07B684FF01B
:101F100000029A627B68002B03D07B681B6A002B4F
:101F2000CFD007F10807BD4680BD00BF4C080010A8
:101F300080B500AF084B1B78DBB2012B08D9074BEB
:101F40004FF001021A70064B4FF001021A7001E0C7
:101F5000FFF7B0FF80BD00BF35020010440600103F
:101F60004506001080B485B000AF4FF00003FB734E
:101F70001B4BBB601B4B7B6018E0BB687A681A6028
:101F8000BB68FA7B1A71BA6853794FF0040161F3A8
:101F900003035371BB6803F11003BB607B6803F15B
:101FA00010037B60FB7B03F10103FB73FB7B122BB4
:101FB000E3D9BA6853794FF0040161F30303537115
:101FC000BB684FF000021A60BB68FA7B1A71064BBF
:101FD000034A1A6007F11407BD4680BC704700BF72
:101FE00050080010600800109009001080B584B0FF
:101FF00000AF786039603E4B1B78DBB203F1010320
:10200000DAB23B4B1A707B68DB68FB607B681A793D
:102010003B681A727B685B7923F00F03DBB2102BED
:1020200016D1FB68002B07D17B683A68DA6050E074
:10203000FB685B69FB6000E000BFFB685B69002B2D
:10204000F6D1FB683A685A613B68FA689A6140E0E9
:102050007B685B7923F00F03DBB2202B39D1FB685F
:10206000002B03D17B683A68DA6032E0FB681A79AA
:102070003B681B799A4209D97B683A68DA603B6809
:10208000FA685A61FB683A689A6122E0FB685B690A
:10209000BB600AE0BB681A793B681B799A4208D892
:1020A000BB68FB60BB685B69BB60BB68002BF1D1A0
:1020B00000E000BFFB683A685A613B68FA689A61C1
:1020C0003B68BA685A61BB68002B02D0BB683A68AB
:1020D0009A613B684FF002025A71064B4FF00102C1
:1020E0001A70FEF791F807F11007BD4680BD00BFDA
:1020F000350200103602001080B584B000AF786061
:102100007B68DB68FB60FB68002B00F08180FB686C
:102110005A697B68DA607B68DB68002B04D07B68D7
:10212000DB684FF000029A61FB684FF000025A61D1
:10213000FB684FF0FF021A72FB681B6AB3F1FF3FA6
:1021400002D0F868FFF7BEFD7B685B7903F00F03F0
:10215000DBB2022B0FD17B681A68FB681A617B68BF
:102160004FF000021A607B68DB8803F1FF339AB2FC
:102170007B68DA803EE07B685B7903F00F03DBB2BB
:10218000032B25D17B681B68BB60BB681A68BB68E2
:10219000DB884FEA8303D3181A68FB681A61BB68AF
:1021A000DB8803F101039AB2BB68DA80BB689B89C4
:1021B00003F1FF339AB2BB689A81BB68DA88BB68C7
:1021C0005B899A4216D1BB684FF00002DA8011E0B9
:1021D0007B685B7903F00F03DBB2012B0AD17B68CC
:1021E000DB8803F1FF339AB27B68DA80FB684FF03B
:1021F000FF321A61094B1B68FA689A4204D1FB68E6
:102200004FF001025A7104E0F868FEF7A7FD00E004
:1022100000BF07F11007BD4680BD00BF08060010D3
:1022200080B485B000AF78607B681B7A4FEA0312F8
:10223000254BD318FB607B685B69002B08D17B685A
:102240009B69002B04D1FB684FF00002DA6031E09B
:102250007B689B69002B0DD17B685B694FF00002A6
:102260009A617B685A69FB68DA607B684FF000020C
:102270005A611FE07B685B69002B09D17B689B6911
:102280004FF000025A617B684FF000029A6111E042
:102290007B689B697A6852695A617B685B697A6876
:1022A00092699A617B684FF000029A617B684FF0F7
:1022B00000025A617B684FF0FF021A7207F114079F
:1022C000BD4680BC704700BF5008001080B487B086
:1022D00000AF13460246FA710A46BA717B71BB79A8
:1022E0007B61FB794FEA43033B611E4BFB607B69DB
:1022F0000F2B07D97B69A3F110037B613B6903F1C5
:1023000001033B613B694FEA8303FA68D3183A69DA
:102310004FEA8202F9688A1811687A694FEA420224
:102320004FF0030000FA02F26FEA020201EA020231
:102330001A603B694FEA8303FA68D3183A694FEA97
:102340008202F9688A18116878797A694FEA42023C
:1023500000FA02F241EA02021A6007F11C07BD46C8
:1023600080BC704700C0024080B487B000AF134605
:102370000246FA710A46BA717B71BB797B61FB79BF
:102380004FEA43033B611E4BFB607B690F2B07D970
:102390007B69A3F110037B613B6903F101033B619E
:1023A0003B694FEA8303FA68D3183A694FEA82021D
:1023B000F9688A1811687A694FEA42024FF00300FF
:1023C00000FA02F26FEA020201EA02021A603B69B5
:1023D0004FEA8303FA68D3183A694FEA8202F96830
:1023E0008A18116878797A694FEA420200FA02F293
:1023F00041EA02021A6007F11C07BD4680BC704723
:1024000040C0024080B485B000AF13460246FA7166
:102410000A46BA717B71194BFB607B79012B13D192
:10242000FB794FEA8303FA68D318FA794FEA8202FC
:10243000F9688A181168BA794FF0010000FA02F2BF
:1024400041EA02021A6014E0FB794FEA8303FA685A
:10245000D318FA794FEA8202F9688A181168BA79B2
:102460004FF0010000FA02F26FEA020201EA0202F2
:102470001A6007F11407BD4680BC704768C002406F
:1024800080B582B000AF78607B6819787B685A7835
:102490007B689B78084611461A46FFF717FF7B6852
:1024A00019787B685A787B68DB78084611461A46AB
:1024B000FFF75AFF7B6819787B685A787B681B792D
:1024C000084611461A46FFF79DFF07F10807BD466B
:1024D00080BD00BF90B482B000AF78604FF00004C0
:1024E0007B6802B472B6197801F10101197062B605
:1024F000A1F101010C0002BCE4B22346184607F129
:102500000807BD4690BC704790B482B000AF7860B9
:102510004FF000047B6802B472B61978A1F1010192
:10252000197062B60C0002BCE4B22346184607F1EB
:102530000807BD4690BC704780B400AF62B6BD4688
:1025400080BC704780B400AF72B6BD4680BC704797
:10255000A0F11C0080F30988704700BF024B1B6884
:10256000024A116819607047080000100C00001042
:102570000B4B19680B4A126891420AD0EFF309809D
:1025800020E9F00F08601A601068B0E8F00F80F3DF
:102590000988054B002018704EF0040E70470000AB
:1025A00008060010040600103502001080B584B043
:1025B00000AF03463960FB71FB79132B02D94FF052
:1025C00001034BE0FB794FEA0312274BD318FB6062
:1025D000FB685B7903F00F03DBB2032B02D04FF0F3
:1025E00001033BE0FB681B68BB60BB689A89BB6862
:1025F0005B899A4202D14FF008032FE01B4B1B78F6
:10260000DBB203F10103DAB2184B1A70BB681A6827
:10261000BB681B894FEA8303D3183A681A60BB680A
:102620001B8903F101039AB2BB681A81BB689B89BD
:1026300003F101039AB2BB689A81BB681A89BB682F
:102640005B899A4203D1BB684FF000021A81F86897
:10265000FFF752FDFDF7D8FD4FF00003184607F1D4
:102660001007BD4680BD00BF5008001035020010A5
:1026700080B582B000AF1E4B1B78DBB203F10103C3
:10268000DAB21B4B1A701B4B1B78092B26D8194B3F
:102690001B781A46FA7103F10103DAB2154B1A706E
:1026A000FDF7B2FDFB794FEAC302134BD3183B6031
:1026B0003B684FF0FF02DA703B684FF0FF021A7080
:1026C0003B684FF000025A703B684FF0FF029A706F
:1026D0003B684FF000025A60FB7903E0FDF794FD80
:1026E0004FF0FF03184607F10807BD4680BD00BF45
:1026F00035020010940900109809001080B586B0CA
:1027000000AF0346FB715B4B1B78DBB2002B02D0A2
:102710004FF00303A8E0584B1B78DBB2002B02D02C
:102720004FF01503A0E0554B1B78FA799A4202D37B
:102730004FF0010398E0504B1B78DBB203F101032B
:10274000DAB24D4B1A704E4B1B683B61FB794FEA76
:10275000C3024C4BD318FB603B69FA79DA71FB6812
:102760005B78002B10D13B691A79FB681A703B69C2
:102770009A79FB689A703B699A79FB68DA70FB6812
:102780004FF001025A706BE0FB685B78012B67D158
:10279000FB689B784FF02C0202FB03F23A4BD318F4
:1027A0007B617B691A793B691B799A422BD93B691A
:1027B0001A797B691A713B699A79FB68DA707B69CF
:1027C0005B79002B06D17869FEF74CFB7869FEF740
:1027D000C5FA18E07B691B7AFF2B14D07B691B7A42
:1027E0004FEA0312294BD318BB60BB685B7923F017
:1027F0000F03DBB2202B06D17869FFF711FDB86813
:102800007969FFF7F3FB3B694FF002025A71204BE5
:102810004FF001021A703B694FF000025A623B69A7
:102820004FF000029A62FB685B687B617B69002B5A
:1028300007D1FB683A695A6012E07B695B6A7B6189
:1028400000E000BF7B695B6A002BF6D17B693A69C7
:102850005A623B697A699A623B694FF000025A6298
:10286000FDF7D2FC4FF00003184607F11807BD46EC
:1028700080BD00BF34020010350200109409001022
:10288000080600109809001090040010500800106D
:102890003602001080B586B000AF0346FB714B4B8B
:1028A0001B78DBB2002B02D04FF0030388E0484BCB
:1028B0001B78FA799A4202D34FF0010380E0454B2E
:1028C0001B78DBB203F10103DAB2424B1A70FB79D9
:1028D0004FEAC302404BD318FB60FB689B784FF074
:1028E0002C0202FB03F23D4BD3187B617B694FF056
:1028F000FF02DA71FB685B68002B0AD1FB684FF0BE
:1029000000025A70FB684FF0FF029A70FDF77CFCE2
:1029100054E0FB689B78FB72FB68DB78FA7A9A429A
:1029200019D1FB685B687B617B691B79FB740EE0E6
:102930007B691B79FA7C9A4206D97B691B79FB7407
:102940007B699A79FB68DA707B695B6A7B617B697A
:10295000002BEDD108E0FB7A204A4FF02C0101FB5F
:1029600003F3D3181B79FB74FB684FF0FF029A70D6
:10297000FB681B78FA7A10461946FEF7BDFAFB6829
:102980005B687B617B695A6AFB685A607B691A796C
:10299000FB681A707B699A79FB689A707B69FA7C8C
:1029A0001A717B694FF000025A627B694FF0000296
:1029B0009A627869FEF7D2F9FDF726FC4FF0000322
:1029C000184607F11807BD4680BD00BF340200104D
:1029D00094090010350200109809001090040010AE
:1029E00080B586B000AF78607B68DB794FEAC302C0
:1029F0003C4BD3183B617B685B6A002B08D17B683A
:102A00009B6A002B04D13B694FF000025A602DE015
:102A10007B685B6A002B09D17B689B6A4FF00002E0
:102A20005A627B684FF000029A621FE07B689B6AE3
:102A3000002B09D17B685B6A4FF000029A627B68C9
:102A40004FF000025A6211E07B685B6A7A68926A12
:102A50009A627B689B6A7A68526A5A627B684FF016
:102A600000029A627B684FF000025A627B684FF066
:102A7000FF02DA713B69DA787B689B799A422CD144
:102A80003B695B687B603B691B78FB753B699A78A7
:102A90003B69DA700EE07B681B79FA7D9A4206D9B1
:102AA0007B681B79FB757B689A793B69DA707B6878
:102AB0005B6A7B607B68002BEDD13B699B78FB7385
:102AC0003B694FF0FF029A70FA7BFB7D1046194676
:102AD000FEF712FA3B69FA7B9A7007F11807BD46B8
:102AE00080BD00BF9809001080B584B000AF0246D9
:102AF0000B46FA71BB71234B1B78DBB203F1010368
:102B0000DAB2204B1A704FF00003FB732EE01E4B1D
:102B10009A68FB7B4FF0010101FA03F302EA030319
:102B2000002B1FD1184B9A68FB7B4FF0010101FA73
:102B300003F31A43144B9A60134B1A68B979FB7B61
:102B400001FA03F31A43104B1A600F4B5A68F979D4
:102B5000FB7B01FA03F31A430B4B5A60FDF754FB5E
:102B6000FB7B0AE0FB7B03F10103FB73FB7B1F2B69
:102B7000CDD9FDF749FB4FF0FF03184607F11007C9
:102B8000BD4680BD35020010E809001080B58AB04E
:102B900000AF03463960FB71644B1B78DBB2002B3E
:102BA00002D04FF00303BBE0614B1B78DBB2002B7C
:102BB00002D04FF01503B3E0FB791F2B02D94FF081
:102BC0000103ADE05B4B9A68FB794FF0010101FA1C
:102BD00003F302EA0303002B02D14FF001039FE04D
:102BE000534B1B78DBB203F10103DAB2504B1A707E
:102BF000504B7B627B6A1A68FB794FF0010101FA46
:102C000003F302EA0303002B12D07B6A1A687B6A83
:102C10005968FB794FF0010000FA03F301EA03035E
:102C20006FEA03031A407B6A1A60FDF7EDFA75E05C
:102C3000414B1B683B623B68002B36D1FB794FF060
:102C4000010202FA03F307F10C02104619464FF095
:102C5000020200F029F93B6A4FF002025A71374B29
:102C60004FF001021A70FDF7CFFA3B6A4FF00002F5
:102C7000DA612F4B1B78DBB203F10103DAB22C4B84
:102C80001A707B6A1A68FB794FF0010101FA03F3AD
:102C900019467B6A5B6801EA03036FEA03031A4083
:102CA0007B6A1A60FDF7B0FA38E0FB794FF0010259
:102CB00002FA03F307F10C02104619464FF0020224
:102CC00000F0F2F8386A3968FEF782FFFDF79CFAE7
:102CD0003B6ADB69002B02D14FF0050320E03B6A21
:102CE0004FF00002DA61124B1B78DBB203F10103F3
:102CF000DAB20F4B1A707B6A1A68FB794FF0010148
:102D000001FA03F319467B6A5B6801EA03036FEA81
:102D100003031A407B6A1A60FDF776FA4FF000034E
:102D2000184607F12807BD4680BD00BF34020010D9
:102D300035020010E80900100806001036020010E5
:102D400080B584B000AF0346FB71414BBB60FB799B
:102D50001F2B02D94FF0010374E0BB689A68FB791E
:102D60004FF0010101FA03F302EA0303002B02D141
:102D70004FF0010366E0BB681A68FB794FF0010170
:102D800001FA03F302EA0303002B02D04FF0000321
:102D900058E0BB681A68FB794FF0010101FA03F3B0
:102DA0001A43BB681A602B4B1B78DBB203F101039B
:102DB000DAB2284B1A70BB68DB68FB603BE0FB684B
:102DC0001B7C002B18D1FB689A68BB681B681A40F3
:102DD000FB689B689A4227D1F86800F0A5F8F86074
:102DE000BB685A68FB794FF0010101FA03F302EA6C
:102DF0000303002B1CD021E0FB689A68BB681B68AA
:102E000002EA0303002B0FD0F86800F08DF8F86099
:102E1000BB685A68FB794FF0010101FA03F302EA3B
:102E20000303002B06D009E0FB681B68FB6002E08F
:102E300000BF00E000BFFB68002BC0D1FDF7E4F944
:102E40004FF00003184607F11007BD4680BD00BFD4
:102E5000E80900103502001080B582B000AF0346CB
:102E6000FB71104B1B78DBB2002B10D0FB794FF0BD
:102E7000030019464FF00002FEF7C2FC0346002B88
:102E800002D14FF0120307E04FF0000304E0FB799A
:102E90001846FFF755FF0346184607F10807BD46D9
:102EA00080BD00BF3502001080B487B000AFF8606D
:102EB000B9601346FB711A4B7B611A4B1B68FA68A9
:102EC000DA61184B1A68FB68DA60FB68BA689A60C6
:102ED000FB68FA791A747B691B69002B0BD1FB68BC
:102EE0004FF000021A60FB684FF000025A607B69E5
:102EF000FA68DA600BE07B691B69FA681A607B6923
:102F00001A69FB685A60FB684FF000021A607B691F
:102F1000FA681A6107F11C07BD4680BC704700BF04
:102F2000E80900100806001080B584B000AF786092
:102F3000786800F025F87B68DB68FB60FB681B6A3B
:102F4000B3F1FF3F02D0F868FEF7BCFEFB684FF01C
:102F5000FF32DA61094B1B68FA689A4204D1FB68B8
:102F60004FF001025A7102E0F868FDF7F7FE7B6846
:102F70001B68184607F11007BD4680BD0806001003
:102F800080B483B000AF78607B681B68002B0CD1E5
:102F90007B685B68002B08D11C4B4FF00002DA60A5
:102FA0001A4B4FF000021A6125E07B681B68002B6A
:102FB00009D17B685A68154B1A617B685B684FF0D2
:102FC00000021A6017E07B685B68002B09D17B6800
:102FD0001A680E4BDA607B681B684FF000025A607B
:102FE00009E07B681B687A6852685A607B685B6896
:102FF0007A6812681A607B68DB684FF00002DA6159
:1030000007F10C07BD4680BC704700BFE8090010FF
:1030100080B400AF2B4B2B4AD26822F44062DA60B6
:10302000294B294A126842F400121A60264B264A9C
:10303000526942F400125A61224B224A526822F429
:1030400040625A60214B214A126822F400121A6031
:103050001C4B1C4AD26842F44072DA60194B194A80
:10306000D26842F44042DA60164B164AD26842F403
:103070004032DA60164B164AD2F8C42042F40012ED
:10308000C3F8C420124B124AD2F8AC2122F4406299
:10309000C3F8AC210E4B0E4AD2F8AC2142F4806248
:1030A000C3F8AC210B4B4FF048021A61094B4FF0AB
:1030B00007021A60074B4FF002025A60BD4680BCFF
:1030C000704700BF00C0024020C0092000C0092096
:1030D00000C00F400080084080B400AFBD4680BCF7
:1030E000704700BF80B483B000AF0346FB71094B4B
:1030F000FA799A6000BF074BDB6803F01003002BDE
:10310000F9D1044B9B68DBB2184607F10C07BD46AA
:1031100080BC70470080084080B584B000AF00F0EC
:1031200031FA0346002B63D0334B334A526922F401
:1031300000125A614FF0D000FFF7D4FF03463B71F5
:103140004FF00000FFF7CEFF03463B714FF09000B9
:10315000FFF7C8FF03467B714FF00000FFF7C2FF87
:103160000346BB714FF00000FFF7BCFF0346FB7145
:103170003B79FB60FB684FEA4313FB607B794FEAC6
:10318000D303DBB2FA6842EA0303FB60FB684FEA51
:1031900003534FEA1353FB60BB79BB60BB684FEA34
:1031A0004313BB60FB794FEAD303DBB2BA6842EA50
:1031B0000303BB60BB684FEA03534FEA1353BB6082
:1031C0000D4B0D4A526942F400125A61BB68C3F5B7
:1031D0007E6303F11F031A464FEAE3730749C1E90F
:1031E0000023FB681A464FEAE3730549C1E900234F
:1031F00007F11007BD4680BD20C00920000A00105D
:10320000080A001080B48BB000AF0346FB714FF08A
:1032100000033B624FF00003FB614FF6FF73BB619D
:103220004FF6FF737B614FF000033B614FF00003EB
:10323000FB604FF0000387F8273087E097F82730CE
:10324000584A4FEAC303D318D3E9002313463A6A16
:10325000D3183B6297F82730534A4FEAC303D31879
:10326000D3E900231346FA69D318FB6197F8273096
:103270004C4A4FEAC303D318D3E90001BB691A468D
:103280004FF00003904271EB030C0AD297F82730FD
:10329000444A4FEAC303D318D3E900231346BB6162
:1032A00019E097F827303F4A4FEAC303D318D3E910
:1032B0000023396908464FF00001904271EB030C7E
:1032C00009D297F82730374A4FEAC303D318D3E916
:1032D000002313463B6197F82730334A4FEAC30374
:1032E000D318D3E900017B691A464FF000039042DE
:1032F00071EB030C0AD297F827302B4A4FEAC3032D
:10330000D318D3E9002313467B6119E097F82730DF
:10331000254A4FEAC303D318D3E90023F9680846C6
:103320004FF00001904271EB030C09D297F827305F
:103330001D4A4FEAC303D318D3E900231346FB60A9
:1033400097F8273003F1010387F8273097F82720F3
:10335000FB799A42FFF472AF3A6ABB69D21A3B69B1
:10336000D21AFB79A3F10203B2FBF3F31A464FF032
:1033700000030E49C1E90023FA697B69D21AFB6890
:10338000D21AFB79A3F10203B2FBF3F31A464FF012
:1033900000030749C1E9002307F12C07BD4680BCA3
:1033A000704700BF100A0010300D001050100010C0
:1033B00058100010F0B58BB000AF0346B9607A60CA
:1033C000FB734FF0000387F827301DE0FFF7A4FEE2
:1033D00097F827105E4BD3E900235E484FEAC101FE
:1033E0004118C1E9002397F827105B4BD3E900236C
:1033F0005A484FEAC1014118C1E9002397F8273024
:1034000003F1010387F8273000F0BCF80346002BD6
:1034100004D097F82720FB7B9A42D7D397F8272030
:10342000FB7B9A4240F09080FB7B1846FFF7EAFE58
:103430004B4BD3E900234649C1E90023494BD3E96B
:1034400000234549C1E90023474B1B6818464FF04C
:1034500000013F4BD3E9002302FB01F400FB03F51D
:103460006419A0FB020164182146404B1B681C46EE
:103470004FF00005384BD3E9002302FB05F604FBAF
:1034800003FE7644A4FB0223F6183346801841EB72
:103490000301374B1B681A464FF00003801841EBBD
:1034A0000301344B1B681A464FF0000303F010F978
:1034B00002460B46C7E9062307F11803B868194608
:1034C0004FF0080203F0C2FD2B4B1B6818464FF06B
:1034D00000011F4BD3E9002302FB01F400FB03F5BD
:1034E0006419A0FB020164182146244B1B681C468A
:1034F0004FF00005184BD3E9002302FB05F604FB4F
:1035000003FE7644A4FB0223F6183346801841EBF1
:1035100003011B4B1B681A464FF00003801841EB58
:103520000301144B1B681A464FF0000303F0D0F858
:1035300002460B46C7E9042307F1100378681946D1
:103540004FF0080203F082FD07F12C07BD46F0BDE5
:10355000000A0010100A0010080A0010300D0010B8
:1035600050100010581000101C0000102000001017
:103570002400001018000010280000102C0000107B
:103580003000001080B483B000AF0A4B5B694FEA93
:10359000134303F020037B607B68202B02D14FF0A4
:1035A000000301E04FF00103184607F10C07BD4688
:1035B00080BC704700C0092080B483B000AF0346D0
:1035C000FB71094B97F907204FEA5212F97901F084
:1035D0001F014FF0010000FA01F143F8221007F13A
:1035E0000C07BD4680BC704700E100E080B483B0AA
:1035F00000AF0346FB710A4B97F907204FEA5212BE
:10360000F97901F01F014FF0010000FA01F102F118
:10361000600243F8221007F10C07BD4680BC7047DA
:1036200000E100E080B483B000AF03463960FB7175
:1036300097F90730002B0DDA0E49FB7903F00F03E1
:10364000A3F104033A68D2B24FEAC202D2B2CB1855
:103650001A760AE0084997F907303A68D2B24FEA79
:10366000C202D2B2CB1883F8002307F10C07BD4683
:1036700080BC704700ED00E000E100E080B582B062
:1036800000AF4FF00103BB704FF000033B714FF0F0
:103690000303FB704FF00A037B704FF002033B7093
:1036A0003B461846FEF7ECFE094B4FF00102C3F80B
:1036B0004821074B4FF00102C3F84C21044B4FF057
:1036C0000102C3F8402107F10807BD4680BD00BFD5
:1036D00000C00F4080B582B000AF78600C4B7A68B4
:1036E0001A604FF012004FF00901FFF79BFF094BE2
:1036F0004FF00102C3F840214FF01200FFF776FFB0
:103700004FF01200FFF758FF07F10807BD4680BDD4
:103710009010001000C00F4080B500AFFCF744FDD2
:10372000054B1B689847054B4FF00102C3F8402139
:10373000FCF742FD80BD00BF9010001000C00F409C
:1037400080B400AF324B324A526A22F040725A6261
:10375000304B304A126842F080521A602D4B2D4A8D
:10376000526922F080525A61294B294A126822F488
:1037700040521A60284B284A126842F040021A60F0
:10378000254B4FF040029A61214B214A126822F4E6
:1037900040421A601E4B1E4A126842F400421A60F0
:1037A0001B4B1B4A126822F440321A60184B184A0D
:1037B000126842F400321A60154B154A126822F45E
:1037C00040221A60124B124A126842F400221A6018
:1037D000124B124AD2F8C42042F48062C3F8C420CB
:1037E0000E4B0E4AD2F8A82142F40012C3F8A821C9
:1037F0000B4B4FF002021A61094B4FF0C7021A60DF
:10380000074B4FF002025A60BD4680BC704700BFB4
:1038100000C0024080C0092000C0092000C00F4045
:103820000000034080B582B000AF4FF0000000F010
:10383000DBFC4FF0010000F0FBFC4FF00A0000F051
:10384000A7FC4FF0010000F0CFFC4FF4807000F0B7
:10385000EFFC4FF0020000F0C7FC4FF4E06000F016
:10386000E7FC4FF0030000F0BFFC41F2282000F01D
:10387000DFFC4FF0070000F0B7FC40F2011000F051
:10388000D7FC4FF0100000F0AFFC4FF0000000F04C
:10389000CFFC4FF0110000F0A7FC4FF0070000F044
:1038A000C7FC4FF0120000F09FFC4FF0000000F04A
:1038B000BFFC4FF0130000F097FC4FF0000000F049
:1038C000B7FC4FF0140000F063FC4FF0100000F064
:1038D0008BFC41F2B06000F0ABFC4FF0110000F047
:1038E00083FC4FF0370000F0A3FC4FF0140000F011
:1038F0004FFC4FF0120000F077FC4FF49F7000F087
:1039000097FC4FF0140000F043FC4FF0130000F060
:103910006BFC4FF4D05000F08BFC4FF0290000F00E
:1039200063FC4FF00F0000F083FC4FF0280000F024
:103930002FFC4FF0220000F057FC4FF000037B609B
:1039400007E04FF6FF7000F073FC7B6803F10103A2
:103950007B607A68544B9A42F3D94FF0200000F014
:1039600043FC4FF0000000F063FC4FF0210000F03A
:103970003BFC4FF0000000F05BFC4FF0500000F00B
:1039800033FC4FF0000000F053FC4FF0510000F00A
:103990002BFC4FF0EF0000F04BFC4FF0520000F01A
:1039A00023FC4FF0000000F043FC4FF0530000F008
:1039B0001BFC40F23F1000F03BFC4FF0600000F0B9
:1039C00013FC4FF41C5000F033FC4FF0610000F08A
:1039D0000BFC4FF0010000F02BFC4FF0300000F02A
:1039E00003FC4FF0070000F023FC4FF0310000F023
:1039F000FBFB40F2034000F01BFC4FF0320000F0F4
:103A0000F3FB40F2044000F013FC4FF0350000F0EF
:103A1000EBFB4FF0020000F00BFC4FF0360000F023
:103A2000E3FB40F2077000F003FC4FF0370000F0BA
:103A3000DBFB40F2066000F0FBFB4FF0380000F0CB
:103A4000D3FB4FF4837000F0F3FB4FF0390000F02C
:103A5000CBFB4FF0070000F0EBFB4FF03C0000F019
:103A6000C3FB4FF4E06000F0E3FB4FF03D0000F0DB
:103A7000BBFB40F2077000F0DBFB4FF0070000F0EB
:103A8000B3FB40F2731000F0D3FB084B074A5269B6
:103A900042F080525A614FF0140000F079FB07F1B8
:103AA0000807BD4680BD00BFFF2B010080C0092074
:103AB00080B584B000AF78604FF0200000F094FB38
:103AC0004FF0000000F0B4FB4FF0210000F08CFB41
:103AD0004FF0000000F0ACFB4FF0220000F084FB40
:103AE0004FF00003FB6007E07B68184600F0A0FB86
:103AF000FB6803F10103FB60FA68034B9A42F3DDB4
:103B000007F11007BD4680BDFF2B010080B584B0D2
:103B100000AFF860B9607A604FF0200000F064FBFD
:103B2000B86800F085FB4FF0210000F05DFBF868FD
:103B300000F07EFB4FF0220000F056FB786800F0AA
:103B400077FB07F11007BD4680BD00BF80B588B088
:103B500000AFB9607A603B600346FB73BB68FB61F2
:103B60007B68BB61FB7BA3F12003FB734FF0000379
:103B7000FB75BDE0FA7BF87D764913464FEAC30337
:103B80009B1A4FEA43031B18CB181B787B754FF029
:103B90000003BB7543E07B7D5BB2002B18DA4FF06E
:103BA000200000F021FBBB69184600F041FB4FF0FC
:103BB000210000F019FBFB69184600F039FB4FF0BB
:103BC000220000F011FB3B68184600F031FB1AE0C0
:103BD000BB6A012B17D04FF0200000F005FBBB693A
:103BE000184600F025FB4FF0210000F0FDFAFB69BC
:103BF000184600F01DFB4FF0220000F0F5FABB6AFA
:103C0000184600F015FB7B7D4FEA43037B75BB69CB
:103C100003F10103BB61BB7D03F10103BB75BB7DF8
:103C2000072BB8D9FB7D03F10103FB75FA7BF87D07
:103C3000484913464FEAC3039B1A4FEA43031B1834
:103C4000CB181B787B754FF00003BB7543E07B7D81
:103C50005BB2002B18DA4FF0200000F0C5FABB6908
:103C6000184600F0E5FA4FF0210000F0BDFAFB69BC
:103C7000184600F0DDFA4FF0220000F0B5FA3B687C
:103C8000184600F0D5FA1AE0BB6A012B17D04FF0A6
:103C9000200000F0A9FABB69184600F0C9FA4FF0FD
:103CA000210000F0A1FAFB69184600F0C1FA4FF0BC
:103CB000220000F099FABB6A184600F0B9FA7B7D41
:103CC0004FEA43037B75BB6903F10103BB61BB7D15
:103CD00003F10103BB75BB7D022BB8D9FB6903F16E
:103CE0000103FB617B68BB61FB7D03F10103FB7595
:103CF000FB7D0D2B7FF63EAFBB6A012B26D04FF02C
:103D00000003BB751FE04FF0200000F06DFABB69A7
:103D1000184600F08DFA4FF0210000F065FAFB69BB
:103D2000184600F085FA4FF0220000F05DFABB6AF9
:103D3000184600F07DFABB6903F10103BB61BB7D4E
:103D400003F10103BB75BB7D0A2BDCD907F120070A
:103D5000BD4680BD3873000080B588B002AFF86002
:103D6000B9607A603B604FF00003FB7513E0FB7DA8
:103D7000FA68D3181B783A6A00921846B9687A68CC
:103D80003B68FFF7E3FEBB6803F10803BB60FB7D04
:103D900003F10103FB75FB7DFA68D3181B78002B38
:103DA000E5D107F11807BD4680BD00BF2DE9B0433E
:103DB00096B000AFF860B9607A603B60FB683B6525
:103DC000FB683B63BB68FB647B68BB647B68FB622E
:103DD0003B687B64FA687B689A4207DD7B683B65D9
:103DE0003B68FB64FB68BB64BB687B64BA6C3B6D7F
:103DF000D31A184602F024F902460B46904623F0E7
:103E000000494046494602F01BFC0346BB627A6CFF
:103E1000FB6CD31A184602F013F902460B461446FF
:103E200023F000452046294602F00AFC03467B6247
:103E30007A6CFB6C9A4203DB4FF001033B6402E0B7
:103E40004FF0FF333B64BA6A7B6A9A425BDD7B6A60
:103E50004FEA43033B627A6ABB6AD31A4FEA4303D1
:103E6000FB617B6A4FEA4302BB6AD31A7B633B6DFB
:103E7000FB63FB6CBB6341E04FF0000387F85730F6
:103E800022E03A6BFB6A9A420CD197F85720FB6B01
:103E9000D3181946BA6B7B6F084611461A46FFF7CE
:103EA00035FE0BE0F96B97F85720BB6BD3181A4619
:103EB0007B6F084611461A46FFF728FE97F85730E1
:103EC00003F1010387F8573097F8572097F87030BF
:103ED0009A42D6D3FB6B03F10103FB637B6B002B90
:103EE00004DA7A6B3B6AD3187B6307E0BA6B3B6CEE
:103EF000D318BB637A6BFB69D3187B63FA6BBB6C1B
:103F00009A42B9DD5AE0BB6A4FEA4303BB61BA6A21
:103F10007B6AD31A4FEA43037B61BB6A4FEA4302D1
:103F20007B6AD31A7B633B6DFB63FB6CBB6341E035
:103F30004FF0000387F8573022E03A6BFB6A9A4251
:103F40000CD197F85720FB6BD3181946BA6B7B6FCF
:103F5000084611461A46FFF7D9FD0BE0F96B97F8B2
:103F60005720BB6BD3181A467B6F084611461A467A
:103F7000FFF7CCFD97F8573003F1010387F857306E
:103F800097F8572097F870309A42D6D3BA6B3B6CAB
:103F9000D318BB637B6B002B04DA7A6BBB69D31835
:103FA0007B6307E0FB6B03F10103FB637A6B7B69C7
:103FB000D3187B63BA6B7B6C9A42B9D107F158076F
:103FC000BD46BDE8B08300BF80B58CB002AFF860DD
:103FD000B9607A603B6097F8303003F1FF33FB74CF
:103FE00097F83830012B36D1FA687B689A4204DAA8
:103FF000FB687B627B683B6203E07B687B62FB68FB
:104000003B62BA683B689A4204DABB68FB613B6872
:10401000BB611BE03B68FB61BB68BB6116E0FB69F1
:104020007B610BE0796A7A697B6B084611461A4618
:10403000FFF76CFD7B6903F101037B617A69BB6962
:104040009A42EFDD7B6A03F101037B627A6A3B6A85
:104050009A42E4DD36E0FB7CBA68D21AFB7CB96890
:10406000CB1A97F830100091796B0191F8681146DE
:104070007A68FFF79BFE97F8303000937B6B0193D3
:10408000F86839687A683B68FFF790FE97F8303037
:1040900000937B6B0193F868B968FA683B68FFF797
:1040A00085FEFB7C7A68D21AFB7C7968CB1A97F87C
:1040B00030100091796B01911046B9681A463B683F
:1040C000FFF774FE07F12807BD4680BD80B58AB0B2
:1040D00000AFF860B9607A603B604FF000037B622C
:1040E000BB68BB617B687B614FF000033B6247E0CC
:1040F0004FF0200000F078F87B69184600F098F83F
:104100004FF00003FB612DE04FF0210000F06CF850
:10411000BB69184600F08CF84FF0220000F064F8FC
:104120007B6A03F10103FA68D3181B783B613B6992
:104130004FEA03233B61FA687B6AD3181B783A691C
:1041400042EA03033B61386900F072F87B6A03F1CD
:1041500002037B62BB6903F10103BB61FB6903F1ED
:104160000103FB613A68FB699A42CDD87B6903F190
:10417000FF337B61BB68BB613B6A03F101033B62B8
:104180003A6B3B6A9A42B3D807F12807BD4680BD17
:1041900080B582B000AF78607B689BB24FF00000C2
:1041A0004FF000014FF00002FDF72AFE07F108076B
:1041B000BD4680BD80B483B000AF0346FB71094BA0
:1041C000FA799A6000BF074BDB6803F01003002BFD
:1041D000F9D1044B9B68DBB2184607F10C07BD46CA
:1041E00080BC70470000034080B582B000AF03463A
:1041F000FB710E4B0D4A526922F040025A614FF09A
:104200007000FFF7D7FF4FF00000FFF7D3FFFB79F7
:104210001846FFF7CFFF054B044A526942F04002AF
:104220005A6107F10807BD4680BD00BF00C00920E4
:1042300080B582B000AF78600F4B0F4A526922F010
:1042400040025A614FF07200FFF7B4FF7B684FEAFB
:104250001323DBB21846FFF7ADFF7B68DBB21846CD
:10426000FFF7A8FF044B044A526942F040025A612A
:1042700007F10807BD4680BD00C0092080B487B0A3
:1042800000AFF860B9607A607B687B617B694FF052
:1042900080721A607B69A3F104037B61FA687B6911
:1042A0001A607B69A3F104037B617B696FF00102F3
:1042B0001A607B69A3F114037B61BA687B691A6099
:1042C0007B69A3F120037B617B69184607F11C071A
:1042D000BD4680BC704700BF80B500AF244B1B7843
:1042E000DBB203F10103DAB2214B1A70214BD3E99F
:1042F00000014FF001024FF00003121843EB0103DD
:104300001C49C1E900231C4B1B68002B12D01A4B1F
:104310001B681B6A012B06D9174B1B681A6A02F12E
:10432000FF321A6206E0144B1B684FF000021A625B
:10433000FDF7FEFD114B1B68002B12D00F4B1B68C5
:104340005B68012B06D90D4B1B685A6802F1FF32DE
:104350005A6006E0094B1B684FF000025A60FCF7F8
:10436000FDF9074B4FF001021A70FBF74DFF80BDBE
:1043700035020010981000104C0800107002001058
:104380003602001080B483B000AF0346FB71094BC6
:1043900097F907204FEA5212F97901F01F014FF007
:1043A000010000FA01F143F8221007F10C07BD46A5
:1043B00080BC704700E100E080B483B000AF0346EA
:1043C000FB710A4B97F907204FEA5212F97901F075
:1043D0001F014FF0010000FA01F102F1200243F841
:1043E000221007F10C07BD4680BC704700E100E0D9
:1043F00080B483B000AF03463960FB7197F9073092
:10440000002B0DDA0E49FB7903F00F03A3F104032F
:104410003A68D2B24FEAC202D2B2CB181A760AE098
:10442000084997F907303A68D2B24FEAC202D2B2CD
:10443000CB1883F8002307F10C07BD4680BC7047FA
:1044400000ED00E000E100E080B582B000AF4FF089
:104450000303BB704FF000033B714FF00203FB708E
:104460004FF01F037B704FF001033B703B46184633
:10447000FEF706F807F10807BD4680BD80B582B09B
:1044800002AF19481949FDF73BF817484FF00501ED
:104490004FF00102FDF7C2F813484FF005014FF04D
:1044A0000102FDF70DF94FF016004FF00901FFF77B
:1044B0009FFF4FF001004FF00001FEF715FB034690
:1044C0001A460B4B1A700A4B1B78FF2B0AD14FF080
:1044D0001103009307484FF00C014FF02B02064BDD
:1044E000FCF7E4F9BD4680BD00400340400D0300E9
:1044F000AC120010807800006C78000080B582B0AB
:1045000000AF0E484FF00101FDF746F84FF01600DE
:10451000FFF738FF0A4B1B7818464FF00001FEF7F3
:1045200035FB0346FB71FB79002B00D0FEE7054B02
:104530001B68184607F10807BD4680BD00400340D0
:10454000AC120010A010001080B500AFFBF72CFEDD
:104550000F484FF005014FF00102FDF70FF9034638
:10456000002B11D00A484FF00501FDF7DDF8034696
:104570001A46084B1A604FF01600FFF71DFF064B56
:104580001B781846FEF768FCFBF716FE80BD00BFDF
:1045900000400340A0100010AC12001080B400AF27
:1045A000BD4680BC704700BF80B584B004AF3848BA
:1045B0004FF000014FF40042364BFCF765FE034616
:1045C0001A46354B1A70344B1B78FF2B0AD14FF02B
:1045D0001103009331484FF00C014FF02A02304B89
:1045E000FCF764F9FFF7ACF8FFF71CF9FEF710FDD4
:1045F000FEF772FD2B4B2B4A526922F080525A6112
:104600004FF6FF70FFF754FA4FF05003009326481F
:104610004FF000014FF0E6024FF05003FFF756FD58
:104620004FF6FF73009321484FF050014FF0E10225
:104630004FF00003FFF790FB4FF6FF7300931C4809
:104640004FF050014FF0D2024FF00003FFF784FB10
:104650004FF0000300934FF0000301934FF001036C
:1046600002934FF000004FF096014FF4A0724FF00C
:104670000003FFF7A9FC0B4B0A4A526942F0805233
:104680005A610C4B4FF000021A60BD4680BD00BF5E
:1046900049470000A0120010A41200101879000071
:1046A000B078000080C0092028790000C47800009C
:1046B000D0780000A812001080B588B004AF7860F0
:1046C000786802F06BFD0346272B00D9FEE71D4BEF
:1046D0001B68082B03D11B4B4FF000021A60194BCB
:1046E0001B6803F10102174B1A60164B1A68134638
:1046F0004FEA03139B1AC3F19603FB60FA68FB6849
:1047000003F10E034FF0000100914FF00001019101
:104710004FF0010102914FF0000011464FF4A072DA
:10472000FFF752FCFB684FF00002009278684FF0F0
:1047300005011A464FF6F073FFF70EFB07F110075D
:10474000BD4680BDA812001080B588B002AF786069
:1047500008E000BF06E000BF04E000BF02E000BFC9
:1047600000E000BFFEF70EFF0346002BF1D007F17B
:10477000100207F108034FF0140011461A46FEF725
:1047800019FE764B1A68764B1B68D3181A464FF001
:104790000003D7E90401904271EB030CDBD26F4BAD
:1047A0001A686F4B1B68D31A18464FF00001D7E9FF
:1047B0000423904271EB030CCFD26A4B1A68684B0A
:1047C0001B68D3181A464FF00003D7E90201904244
:1047D00071EB030C1AD2634B1A68614B1B68D31A36
:1047E00018464FF00001D7E90223904271EB030C09
:1047F0000CD24FF6FF7300935B484FF050014FF01F
:10480000C3024FF00003FFF7A7FAA5E0574B1A6861
:10481000534B1B68D3181A464FF00003D7E9020127
:10482000904271EB030C1AD2504B1A684C4B1B6828
:10483000D31A18464FF00001D7E90223904271EBDA
:10484000030C0CD24FF6FF73009349484FF0500110
:104850004FF0C3024FF00003FFF77EFA7CE0454BB8
:104860001A683F4B1B68D3181A464FF00003D7E96C
:104870000201904271EB030C1AD23E4B1A68384B7E
:104880001B68D31A18464FF00001D7E90223904263
:1048900071EB030C0CD24FF6FF73009336484FF0C8
:1048A00050014FF0C3024FF00003FFF755FA53E0F9
:1048B000324B1A682A4B1B68D3181A464FF0000374
:1048C000D7E90201904271EB030C1AD22B4B1A6804
:1048D000234B1B68D31A18464FF00001D7E9022377
:1048E000904271EB030C0CD24FF6FF7300932448F7
:1048F0004FF050014FF0C3024FF00003FFF72CFAC6
:104900002AE0204B1A68164B1B68D3181A464FF042
:104910000003D7E90201904271EB030CBFF41FAF13
:10492000184B1A680E4B1B68D31A18464FF000013B
:10493000D7E90223904271EB030CBFF412AF4FF69C
:10494000FF73009310484FF050014FF0C3024FF037
:104950000003FFF701FA05E704E700BF98780000BD
:10496000907800009C780000DC780000A0780000BF
:10497000E8780000A4780000F4780000A87800002F
:1049800000790000AC7800000C79000080B584B09C
:1049900000AF0346FB71FB79132B02D94FF00103E3
:1049A0002EE0FB794FEA0312184BD318FB60FB682B
:1049B0005B7903F00F03DBB2012B02D04FF0010350
:1049C0001EE0FB68DA88FB681B899A4202D14FF02F
:1049D000060315E00E4B1B78DBB203F10103DAB2DC
:1049E0000B4B1A70FB68DB8803F101039AB2FB687A
:1049F000DA80F868FDF780FBFBF706FC4FF0000358
:104A0000184607F11007BD4680BD00BF50080010D2
:104A10003502001080B483B000AF7860FEE700BFBD
:104A200080B483B000AF0346FB71FEE72DE9F04F81
:104A30008BB0994682468B46904600F09DF940F235
:104A40006806C1F2000696F90030B3F1FF3F044654
:104A50000D4604D04046494601F022F820B92046D0
:104A600029460BB0BDE8F08F5046594601F018F8C2
:104A7000074648BB404649460022002301F0AEFDF0
:104A80000028ECD096F900204AF62833C0F2000343
:104A90000193A2F1FF3008974142CDE902AB41EB0F
:104AA00000010023022A08BF41F00101C3F6F073A0
:104AB0000122CDE9048900920022CDE906230029D4
:104AC0002DD0DDE90645CAE75046594600220023AD
:104AD00001F084FD00282FD04046494600220023E3
:104AE00001F07CFD002862D096F900204AF62833B8
:104AF000C0F2000301210193002000910023002156
:104B00000893CDE902ABCDE90489CDE9060132B1C4
:104B100000230022C3F6F073CDE90623D1E76846EF
:104B200001F006F8002870D0089B002BC9D002F0D5
:104B300087FA089B0360C4E72046294600F0A8FFD7
:104B40000746002866D0204629460022002301F0AF
:104B500045FD002883D05046594600F099FF0028B3
:104B60003FF47DAF4046494600F092FF00283FF4F5
:104B700076AF96F900204AF628330421C0F20003EC
:104B800000200091019300210023022A0893CDE91F
:104B900002ABCDE90489CDE9060169D0684600F091
:104BA000C7FF002864D0089B002B8AD0BFE740468F
:104BB000494600F06DFF00283FF451AF404649469A
:104BC0000022002301F014FD00283FF448AF3178A3
:104BD0004AF62833C0F20003012201930023009219
:104BE0000893CDE902ABCDE90489002937D1002231
:104BF0000023CDE90623684600F09AFF0028D2D1B1
:104C000002F01EFA21230360CDE702F019FA2123F6
:104C1000036089E75046594600F03AFF002892D0D9
:104C20004046494600F034FF00288CD020462946F3
:104C300000F036FF08BB34784AF62833C0F2000390
:104C40000122019300920890CDE902ABCDE90489DD
:104C5000002C67D100200021CDE90601CBE700221E
:104C600000230229CFF6F073CDE90623C8D0C2E7AE
:104C700002F0E6F92223036095E796F900204AF650
:104C80002833C0F200030321019300910897CDE976
:104C900002ABCDE90489F2B94FF6FF75504659468B
:104CA000002200234FF06044C4F2EF75CDE90645C1
:104CB00001F09EFC002841D196F90030022B05D06E
:104CC000684600F035FF00287FF42EAF02F0B8F9F7
:104CD0002223036028E7002550465946002200237E
:104CE0000024C7F6F075CDE9064501F081FC0028E7
:104CF000E2D000230022C3F6E0734046494601F0AB
:104D000005FA04460D4600F01BFF22462B4601F033
:104D100065FC0028D0D100230022CFF6F073CDE946
:104D20000623C9E70020002102460B4601F018FBCC
:104D3000022CCDE906013FF463AF5CE700230022BB
:104D4000C3F6E0734046494601F0E0F904460D46DB
:104D500000F0F6FE22462B4601F040FC0028ABD1C5
:104D60004FF6FF734FF06042CCF2EF73CDE90623AC
:104D7000A2E700BF000000002DE9F04F23F000453E
:104D800088468A4655EA020191B017461E461446E7
:104D900083469C46814600F08D80002128F000402B
:104DA000C7F6F07102908842CDF810800FDD0299AD
:104DB00001F1404707F5801757EA09077FD1002620
:104DC000C3F6F0763846314611B0BDE8F08F14BF17
:104DD00000220122BBF1000F0CBF002302F00103EF
:104DE000002BE4D18D42E2DC14BF00200120002F13
:104DF0000CBF002100F001010029D8D1B8F1000F4B
:104E000066DB079194B9002840F081800023C3F647
:104E1000F0739D4200F0B880BCF1804F00F0D78362
:104E20000023C3F6E0739C4500F0C083584641461A
:104E30000192CDF800C000F027FE019ADDF800C015
:104E40000C46B9F1000F0BD10299002908BF42F0BE
:104E50000102002A72D10023C3F6F07399426DD08B
:104E60004FEADA79079B09F1FF3953EA090300F0A9
:104E700086800023C4F2E0139D4240F3A18000230A
:104E8000C4F2F0339D4240F337844FF6FF73029E25
:104E9000C3F6EF739E4240F3A483BCF1000F4ADDDA
:104EA00045A1D1E9000102460B4601F02FF9074662
:104EB0000E4687E700260F46C3F6F07682E74AF6ED
:104EC0006030C0F2000011B0BDE8F04F00F032BE1B
:104ED0004FF6FF73C4F23F339D4267DC4FF6FF731A
:104EE000C3F6EF739D428CDD2B15A3F57E73073B54
:104EF000142B40F39184C3F1340337FA03F111FA10
:104F000003F3BB4200F0AE84002107917AE7029AD6
:104F100002F1404303F5801353EA090300F0518383
:104F20004FF6FF73C3F6EF739A4240F3BA83BCF1B6
:104F3000000FBFF647AF00273E4643E7BCF1000F26
:104F4000A4BF07462646C0F24B84049A002ABFF647
:104F500039AF0298079900F1404303F580131943D4
:104F600040F067843A4633463846314600F01AFF2F
:104F700002460B4601F0F4F907460E4622E7584672
:104F800041465A464346F1E7BCF1000FA4BF5F46D5
:104F90004646BFF617AF00215A460020C3F6F0710F
:104FA000434601F0DDF907460E460BE7022307935F
:104FB000002C3FF428AF39E79C7500883CE4377E2D
:104FC000029BB3F5801FA4BF4FF6014CCFF6FF7CC8
:104FD0000BDA00230022C4F24033214601F096F898
:104FE0004FF6CC3CCFF6FF7C0291029949F68E0237
:104FF000C0F2030221F07F4323F470030CEB215C29
:10500000934243F07E5545F4E005DCBF4FF4002A9F
:105010004FF0000812DD4BF27962C0F20B029342AE
:10502000C1BF0CF1010CA5F580154FF4002A4FF01B
:105030000008DCBF4FF4402A4FF001084AF6303137
:105040000246C0F200012B4601EBC808CDE9082357
:105050002946CDF800C0D8E9002300F0A3FED8E926
:105060000023CDE90A01DDE9080100F09DFE0B46B1
:1050700000210246C3F6F071002001F071F9CDE97C
:105080000C01DDE90C23DDE90A0101F03FF8CDE96F
:1050900004016910DDE90423002041F00051CDE94D
:1050A000022301EB0A0302900022DDE902AB144661
:1050B0001D465046594601F029F802460B46DDE9E7
:1050C0000A0100F06FFED8E90023CDE90A0120466D
:1050D000294600F067FE02460B46DDE9080100F0B4
:1050E00061FE02460B465046594601F00FF8024653
:1050F0000B46DDE90A0100F055FEDDE90C2301F065
:1051000005F8CDE90801DDE9040102460B4600F08F
:10511000FDFF02460B4604460D4600F0F7FFA4A330
:10512000D3E90023CDE90A012046294600F0EEFF2D
:10513000A1A3D3E9002300F037FE22462B4600F05E
:10514000E5FF9FA3D3E9002300F02EFE22462B4665
:1051500000F0DCFF9CA3D3E9002300F025FE2246EB
:105160002B4600F0D3FF9AA3D3E9002300F01CFEE6
:1051700022462B4600F0CAFF97A3D3E9002300F094
:1051800013FE02460B46DDE90A0100F0BFFFDDE930
:10519000042304460D465046594600F005FEDDE95D
:1051A000082300F0B3FF22462B4600F0FDFD5246D7
:1051B0005B46CDE90A015046594600F0A7FF0022A0
:1051C0000023C4F20803CDE90E0100F0EDFDDDE996
:1051D0000A2300F0E9FD50460D4602992B460C4685
:1051E0005946224600F092FF22462B46CDE90C019B
:1051F000DDE9080100F08AFF00230022C4F2080361
:1052000082468B462046294600F0CCFDDDE90E2380
:1052100000F0C8FD02460B46DDE90A0100F0C2FDC0
:10522000DDE9042300F072FF02460B465046594662
:1052300000F0BAFD82468B4652465B46DDE90C0122
:1052400000F0B2FD029A104665A3D3E9002304469C
:105250000D4600F05BFF64A3D3E90023CDE9040110
:105260002046294600F052FFDDE90C23CDE9080174
:105270002046294600F096FD02460B465046594608
:1052800000F090FD5AA3D3E9002300F03FFF02464F
:105290000B46DDE9080100F087FDD8E9042300F0A2
:1052A00083FDDDF800C0CDE90801604600F0C8FECE
:1052B000D8E908ABDDE9082304460D46DDE9040121
:1052C00000F072FD52465B4600F06EFD22462B4612
:1052D00000F06AFD029B224618462B4604460D4606
:1052E00000F060FD52465B4600F05CFDDDE9042302
:1052F00000F058FD02460B46DDE9080100F052FDC2
:1053000082468B460798431E53EA090340F0C28148
:1053100000230022CBF6F073CDE9022300223346AE
:1053200038463146904600F03DFD22462B4600F0BF
:10533000EDFE52465B46CDE904013846314600F0A9
:10534000E5FE02460B46DDE9040100F02DFD224694
:105350002B4682468B464046314600F0D7FE4FF63C
:10536000FF76C4F28F0604460D4650465946224643
:105370002B4600F019FDB142804689460F4640F3A6
:10538000358101F13F4303F5E003034340F03482EC
:1053900019A3D3E900235046594629F0004600F0EE
:1053A00003FD22462B46CDE90401404628E000BF1C
:1053B000EF4E454A287ECA3F65DBC9934A86CD3FFA
:1053C00001411DA96074D13F4D268F515555D53FE0
:1053D000FFAB6FDBB66DDB3F033333333333E33F78
:1053E000000000E009C7EE3FF5015B14E02F3EBE70
:1053F000FD033ADC09C7EE3FFE822B654715973C5B
:10540000494600F0CFFC02460B46DDE9040101F0FD
:105410000DF9002840F0F0810023C3F6E0739E42AE
:1054200000F300810022079294464FF00008A2A3E7
:10543000D3E9002340464946CDF800C000F066FE9F
:1054400022462B46CDE904014046494600F0AAFC1D
:1054500002460B465046594600F0A4FC98A3D3E9F7
:10546000002300F053FE98A3D3E9002304460D4621
:105470004046494600F04AFE02460B462046294671
:1054800000F092FC06460F4632463B46DDE9040139
:1054900000F08AFCDDE9042304460D4600F082FC9E
:1054A00002460B463046394600F07CFC22462B462D
:1054B000804689462046294600F028FE84A3D3E989
:1054C000002306460F4600F021FE83A3D3E9002304
:1054D00000F068FC32463B4600F018FE80A3D3E99A
:1054E000002300F061FC32463B4600F00FFE7EA335
:1054F000D3E9002300F056FC32463B4600F006FE9E
:105500007BA3D3E9002300F04FFC32463B4600F07A
:10551000FDFD02460B462046294600F043FC0646A8
:105520000F4632463B462046294600F0EFFD00225A
:105530004FF0804382468B463046394600F032FCBD
:1055400002460B465046594600F00AFF42464B467B
:1055500006460F462046294600F0D8FD42464B46F7
:1055600000F022FC02460B463046394600F01AFC99
:1055700022462B4600F016FC0B4600210246C3F6DD
:10558000F071002000F00EFC079EDDF800C07418DA
:1055900002462515002DC8BF234640F36D81DDE985
:1055A000020100F0B3FD07460E460BE4049B002BFE
:1055B000FFF63CAC5846414611B0BDE8F04F00F054
:1055C00083B900261F46C3F6F076FFF7FBBB5846AB
:1055D00041465A46434600F099FD07460E46FFF7FE
:1055E000F1BBBCF1000FBFF6A6AC59E44CF6FF339B
:1055F00021F00046C4F290039E427FF70DAF4FF4B6
:105600005053C3F66F73CB18034340F01781224603
:105610002B4600F0C7FB52465B4600F0FDFF00281A
:1056200040F00C8133154FF48011A3F57E734FF6D3
:10563000FF76063BC0F20F0619410022C919C1F3DB
:105640000A5021F07F4CA0F57E702CF4700C0738C6
:105650004CF4801C0641C0F114004CFA00FC21EA15
:105660000603002F20462946B8BFCCF1000CCDF828
:1056700000C000F097FB04460D46504659462246AE
:105680002B4600F091FBDDF800C089464FEA0C5133
:105690000791CAE600210020C3F6F071CDE90201AE
:1056A0003CE6BCF1000FBFF646AC06F10046FFF742
:1056B00089BB00BFAFF3008000000000432EE63F2F
:1056C000EF39FAFE422EE63F396CA80C615C20BE31
:1056D000D0A4BE726937663EF16BD2C541BDBB3EF8
:1056E0002CDE25AF6A56113F93BDBE166CC1663FD6
:1056F0003E5555555555C53F4FF6FE730299C3F6B5
:10570000EF7399427FF76DAF0023029AC3F6F073EF
:105710009A423FF7C2AB00230022C3F6F073214642
:1057200000F040FB5CA3D3E9002304460D4600F0E3
:10573000EDFC5BA3D3E9002382468B462046294635
:1057400000F0E4FC22462B46CDE902012046294622
:1057500000F0DCFC00230022C3F6D073CDE9040185
:105760002046294600F0D2FC02460B464EA1D1E964
:10577000000100F017FB22462B46002400F0C6FC77
:105780000B4600210246C3F6E071002000F00AFB40
:1057900002460B46DDE9040100F0B8FC44A3D3E95E
:1057A000002300F0B3FC02460B46DDE9020100F0E5
:1057B000F9FACDE902015046DDE90223594600F02D
:1057C000F3FA52465B4620460D4600F0EBFA0246DD
:1057D0000B46DDE9020100F0E5FA82468B4691E5D1
:1057E00000210246C3F6F0710020234600F0B8FD08
:1057F00007460E46FFF7A9BB2FA3D3E90023DDE937
:10580000020100F083FC2CA3D3E9002300F07EFC0E
:1058100007460E46FFF7D6BA07BBC3F1140355FA85
:1058200003F111FA03F3AB422CD000210791FFF7EB
:10583000EABA079A012A7FF4C5AA36E720A3D3E97A
:105840000023DDE9020100F061FC1DA3D3E9002380
:1058500000F05CFC07460E46FFF7B4BA0020079044
:10586000FFF7E4BA01F00103C3F102030793002C30
:105870003FF4C9AAFFF7DABA624600F001FA02461D
:105880000B468CE601F00103C3F102030793FFF717
:10589000BABA00BFAFF30080000000604715F73FC1
:1058A00044DF5DF80BAE543E555555555555D53F23
:1058B000FE822B654715F73F9C7500883CE4377ED8
:1058C00059F3F8C21F6EA5014FF0000C02462DE9F6
:1058D000F843E046C7F6F07CC7F6F07801EA0C0C16
:1058E0000446C4450D460B460E46074600F0B08000
:1058F000002940F3A0800A157ED026F07F4312F0E5
:10590000010FA2F57E7C23F47003ACF1070C43F485
:10591000801362D0FA0F002602EB43034FEA6C0CAF
:105920007F00162031464FF400128C18FD0F9C4268
:105930004FEA4707DEBFC4EB0303A118B6185208AD
:10594000013805EB4303F0D1202580464FF000429B
:10595000994202EB08040EDB8B4214BF4FF00009A2
:105960004FF00109BC428CBF4FF0000909F001095A
:10597000B9F1000F0ED004F0004904EB0208B9F1B0
:10598000004F23D089465B1ABC4288BF013B3F1BB6
:1059900080184946FC0F52087F00013D04EB430389
:1059A000D6D13B431ED140084FEA0C52731002F18E
:1059B0007E5216F0010F18BF40F0004002F5C00201
:1059C000D518044620462946BDE8F883B8F1000FF3
:1059D000A8BF01F10109D6DAD4E7FA0F7F0002EB84
:1059E000430397E7B0F1FF3F1CBF00F00103181815
:1059F000D9D101362846D7E7012216F4801335D1D4
:105A00007600013316F4801FFAD0C3F1200137FA73
:105A100001F1D21A0E439F4026F07F4312F0010F8E
:105A2000A2F57E7C23F47003ACF1070C43F48013E1
:105A30007FF470AFD1E721F0004C5CEA000CC1D0DC
:105A4000B9B9FE0A153B7F05002EFAD05A1CD4E7DF
:105A500000F05CFB02460B462046294600F0A4F904
:105A600004460D4620462946BDE8F8832021002340
:105A7000CDE702460B4600F095F902460B4600F0D2
:105A80006FFC04460D469DE721F00041704700BFC2
:105A900021F0004000F1004000F58010C00F704779
:105AA00050EA010310B43CD0D0F1010238BF00220B
:105AB000B1F1004F14BF002302F00103002B30D1DD
:105AC0004FF6FF73A1F58010C7F6DF7301F1FE44B6
:105AD000984204F570048CBF002001209C428CBFCA
